:020000040800F2
:10000000005000202D3900088D3400088F3400087E
:100010009134000893340008953400080000000073
:1000200000000000000000000000000097340008FD
:1000300099340008000000009B3400089D3400083B
:1000400075390008753900087539000875390008D8
:1000500075390008A13400087539000875390008A1
:1000600075390008753900087539000875390008B8
:1000700075390008753900087539000875390008A8
:100080007539000875390008753900087539000898
:10009000A53400087539000875390008753900085D
:1000A0007539000875390008753900087539000878
:1000B000B1340008BD3400087539000875390008EE
:1000C0007539000875390008753900087539000858
:1000D0007539000875390008753900087539000848
:1000E00075390008753900087539000800000000EE
:1000F0000000000000000000000000000000000000
:0C01000000000000000000005FF808F1A3
:10010C0010B5054C237833B9044B13B10448AFF345
:10011C0000800123237010BD7C0100200000000032
:10012C00E839000808B5034B1BB103490348AFF38A
:10013C00008008BD0000000080010020E8390008A4
:10014C0080F0004002E000BF81F0004142001FBF80
:10015C005FEA410392EA030F7FEA226C7FEA236C89
:10016C006AD04FEA1262D2EB1363C1BFD21841407E
:10017C0048404140B8BF5B42192B88BF704710F014
:10018C00004F40F4000020F07F4018BF404211F0B7
:10019C00004F41F4000121F07F4118BF494292EA1F
:1001AC00030F3FD0A2F1010241FA03FC10EB0C004B
:1001BC00C3F1200301FA03F100F0004302D54942D8
:1001CC0060EB4000B0F5000F13D3B0F1807F06D385
:1001DC0040084FEA310102F10102FE2A51D2B1F17D
:1001EC00004F40EBC25008BF20F0010040EA030072
:1001FC007047490040EB000010F4000FA2F101021F
:10020C00EDD1B0FA80FCACF1080CB2EB0C0200FAA8
:10021C000CF0AABF00EBC25052421843BCBFD040F6
:10022C001843704792F0000F81F4000106BF80F470
:10023C0000000132013BB5E74FEA41037FEA226C33
:10024C0018BF7FEA236C21D092EA030F04D092F0FE
:10025C00000F08BF0846704790EA010F1CBF002032
:10026C00704712F07F4F04D1400028BF40F000408F
:10027C00704712F100723CBF00F50000704700F0AF
:10028C00004343F0FE4040F4000070477FEA2262D6
:10029C0016BF08467FEA23630146420206BF5FEAA7
:1002AC00412390EA010F40F4800070474FF00003A7
:1002BC0004E000BF10F0004348BF40425FEA000C6E
:1002CC0008BF704743F0964301464FF000001CE016
:1002DC0050EA010208BF70474FF000030AE000BF6C
:1002EC0050EA010208BF704711F0004302D54042AA
:1002FC0061EB41015FEA010C02BF8446014600201C
:10030C0043F0B64308BFA3F18053A3F50003BCFA36
:10031C008CF2083AA3EBC25310DB01FA02FC6344E3
:10032C0000FA02FCC2F12002BCF1004F20FA02F2EA
:10033C0043EB020008BF20F00100704702F12002DD
:10034C0001FA02FCC2F1200250EA4C0021FA02F23E
:10035C0043EB020008BF20EADC7070474FF0FF0C43
:10036C001CEAD0521EBF1CEAD15392EA0C0F93EA3E
:10037C000C0F6FD01A4480EA010C400218BF5FEAE0
:10038C0041211ED04FF0006343EA501043EA511153
:10039C00A0FB01310CF00040B1F5000F3EBF49004D
:1003AC0041EAD3715B0040EA010062F17F02FD2A51
:1003BC001DD8B3F1004F40EBC25008BF20F0010034
:1003CC00704790F0000F0CF0004C08BF49024CEA4B
:1003DC00502040EA51207F3AC2BFD2F1FF0340EADD
:1003EC00C250704740F400004FF00003013A5DDC4E
:1003FC0012F1190FDCBF00F000407047C2F100028F
:10040C00410021FA02F1C2F1200200FA02FC5FEA7B
:10041C00310040F1000053EA4C0308BF20EADC70C5
:10042C00704792F0000F00F0004C02BF400010F437
:10043C00000F013AF9D040EA0C0093F0000F01F0E4
:10044C00004C02BF490011F4000F013BF9D041EA06
:10045C000C018FE70CEAD15392EA0C0F18BF93EA08
:10046C000C0F0AD030F0004C18BF31F0004CD8D132
:10047C0080EA010000F00040704790F0000F17BFB9
:10048C0090F0004F084691F0000F91F0004F14D0FF
:10049C0092EA0C0F01D142020FD193EA0C0F03D157
:1004AC004B0218BF084608D180EA010000F000405A
:1004BC0040F0FE4040F40000704740F0FE4040F435
:1004CC00400070474FF0FF0C1CEAD0521EBF1CEAD4
:1004DC00D15392EA0C0F93EA0C0F69D0A2EB0302F2
:1004EC0080EA010C49024FEA402037D04FF080538C
:1004FC0043EA111143EA10130CF000408B4238BF51
:10050C005B0042F17D024FF4000C8B4224BF5B1A5E
:10051C0040EA0C00B3EB510F24BFA3EB510340EAAC
:10052C005C00B3EB910F24BFA3EB910340EA9C005A
:10053C00B3EBD10F24BFA3EBD10340EADC001B01CA
:10054C0018BF5FEA1C1CE0D1FD2A3FF650AF8B426E
:10055C0040EBC25008BF20F0010070470CF0004C7B
:10056C004CEA50207F32C2BFD2F1FF0340EAC250A6
:10057C00704740F400004FF00003013A37E792F067
:10058C00000F00F0004C02BF400010F4000F013AC5
:10059C00F9D040EA0C0093F0000F01F0004C02BFC0
:1005AC00490011F4000F013BF9D041EA0C0195E729
:1005BC000CEAD15392EA0C0F08D142027FF47DAFC2
:1005CC0093EA0C0F7FF470AF084676E793EA0C0FB2
:1005DC0004D14B023FF44CAF08466EE730F0004CB0
:1005EC0018BF31F0004CCAD130F000427FF45CAF40
:1005FC0031F000437FF43CAF5FE700BF42000ED206
:10060C00B2F1FE4F0BD34FF09E03B3EB126209D441
:10061C004FEA002343F0004323FA02F070474FF0F7
:10062C000000704712F1610F01D1420202D14FF06C
:10063C00FF3070474FF00000704700BF38B50E4BCD
:10064C00054618784FF47A73B3FBF0F30B4A106835
:10065C00B0FBF3F000F08EF8044658B90F2D09D812
:10066C00024629464FF0FF3000F042F8044B20467A
:10067C001D6038BD012038BD00000020180100208D
:10068C0004000020074A08B51368032043F0100348
:10069C00136000F01BF80020FFF7D0FF02F06CFE97
:1006AC00002008BD00200240034A044B11681B784F
:1006BC000B441360704700BFC403002000000020EF
:1006CC00014B1868704700BFC4030020074A0002A2
:1006DC00D36800F4E06023F4E0631B041B0C43F0CC
:1006EC00BF6343F400330343D360704700ED00E075
:1006FC00174B30B5DC68C4F30224C4F10703251D85
:10070C00042B28BF0423062D4FF0010598BF0024AD
:10071C0005FA03F303F1FF3388BF033C1940A140F2
:10072C0005FA04F4013C2240002842EA01024FEA97
:10073C000212A9BF00F16040064BD2B200F5614035
:10074C00BBBF00F00F00D2B280F800231A5430BDAA
:10075C0000ED00E014ED00E0002808DB0123420965
:10076C0000F01F0003FA00F0014B43F82200704721
:10077C0000E100E00138B0F1807F0AD2F021064B95
:10078C00064A586082F823100020072298601A60ED
:10079C0070470120704700BF10E000E000ED00E062
:1007AC002DE9F74F00242646664BDFF8A8E1DFF869
:1007BC00A8C10A6832FA06F502D103B0BDE8F08F81
:1007CC004FF0010808FA06F802EA080290457FD1BA
:1007DC004D68122D00F0AA8000F28380022D00F0EB
:1007EC00A28077D8002D00F08980012D00F099802F
:1007FC004FF00F09FF2A93BF824606F18045083D52
:10080C00D0F800B092BFB500D0F804B0AD0009FA32
:10081C0005F82BEA080804FA05F588BF00F1040A6C
:10082C0048EA0505CAF80050D1F804A01AF0805F18
:10083C004ED0454D444FAD6926F0030845F00105F7
:10084C00BD61BD6908F1804805F00105019508F509
:10085C00803806F0030B019D4FEA8B0BD8F808503B
:10086C0009FA0BF925EA0909384DA84263D005F5B8
:10087C008065A84261D005F58065A8425FD005F57A
:10088C008065A8420CBF0325042505FA0BF545EA43
:10089C000905C8F808501D681AF4803F14BF1543A9
:1008AC0095431D605D681AF4003F14BF15439543D2
:1008BC005D609D681AF4801F14BF154395439D60BD
:1008CC00DD681AF4001F14BF2A4325EA0202DA601D
:1008DC0001366EE7032D22D0112D89D1CC6804345A
:1008EC0086E71B4FBD4209D012D8DFF870904D45FA
:1008FC0004D009F580394D457FF47AAF8C68C4B1CA
:10090C00012C0CBFC0F81080C0F8148008246FE7CD
:10091C007545F3D06545F1D0DFF84490EBE7002442
:10092C0066E7CC6864E7CC68083461E7CC680C34C3
:10093C005EE704245CE70025A7E70125A5E702256F
:10094C00A3E700BF00040140001002400008014072
:10095C0000002110000031100000321000001110B6
:10096C00000022108368194214BF01200020704738
:10097C00F0B5044687B010B390F8293203F0FF02AB
:10098C001BB980F8282202F029FE254603236E4667
:10099C0055F8100B84F8293201F0CEF90FCD0FC6A3
:1009AC002B6825463360271D97E80E0055F8100B71
:1009BC0001F0B2F9064620B1022384F82932012550
:1009CC0048E00146206801F0C1F930464FF0010EB5
:1009DC006168C3B2994200F1010017D80022104699
:1009EC00D3B2994202F101021DD86E460FCD0FC64B
:1009FC002B68336097E80E00206801F0A9F90123F9
:100A0C00054600B3022284F82922D8E704EB4312EE
:100A1C0082F829E082F82830D38682F82B6096631E
:100A2C00D6631664D5E704EB431686F828310A33EF
:100A3C005B0186F8290186F82B01C6F83801C6F847
:100A4C003C01E050CCE784F8240084F8293220687B
:100A5C0001F064FC284607B0F0BD90F8283210B5C0
:100A6C00012B04460ED0012180F8281202F0DFFE83
:100A7C00206801F051FC206801F055F9002084F841
:100A8C00280210BD022010BD90F8282210B5012AB2
:100A9C0004460BD0012280F8282284F82410006828
:100AAC0001F034FC002084F8280210BD022010BD97
:100ABC0070B511F0800F044601F007004FEA4015A5
:100ACC001FD0012605F128012544214485F8296011
:100ADC000A614A78C0B20870CB7002B1C881022B8F
:100AEC0004BF00230B7194F82832012B11D0012381
:100AFC00206884F8283201F047F9002084F8280295
:100B0C0070BD002605F594712544214485F82961B2
:100B1C00DEE7022070BD01F0070311F0800F10B565
:100B2C004FEA4312044615D002F128010144024455
:100B3C00012082F829000B7094F82832012B11D077
:100B4C000123206884F8283201F096FA002084F8FA
:100B5C00280210BD02F5947101440244002082F871
:100B6C002901E8E7022010BD70B5002601F007014D
:100B7C004D01441984F8281105F594710144C4F809
:100B8C003C21C4F84031C4F8446184F82961006800
:100B9C0001F0DCFB304670BD01F0070100EB4111A8
:100BAC00D1F84401704701F0070170B54D014419AB
:100BBC0023640026012384F8281005F12801014440
:100BCC00E263666484F82930006801F0BFFB3046AC
:100BDC0070BD00002DE9F84F0446006801F0A0FB41
:100BEC00020400F11082206801F09AFB43050FD536
:100BFC0022682046B2F8443023F480631B041B0C9B
:100C0C00A2F8443002F021FD00212046FFF73CFF02
:100C1C00206801F085FB470408D52268B2F84430FF
:100C2C0023F480431B041B0CA2F84430206801F011
:100C3C0077FB860408D52268B2F8443023F40053BD
:100C4C001B041B0CA2F84430206801F069FBC5049E
:100C5C001CD522682046B2F8403023F004031B0454
:100C6C001B0CA2F84030B2F8403023F008031B04F0
:100C7C001B0CA2F8403002F00BFD2268B2F8443095
:100C8C0023F480531B041B0CA2F84430206801F0A1
:100C9C0047FB000526D52068B0F840309BB243F0E6
:100CAC000803A0F84030B0F8443023F400631B0470
:100CBC001B0CA0F84430B0F840309BB243F0040356
:100CCC00A0F8403001F02CFBC10408D52268B2F822
:100CDC00443023F480531B041B0CA2F844302046F0
:100CEC0002F0C6FC206801F01BFB82050BD52268C4
:100CFC002046B2F8443023F400731B041B0CA2F8FA
:100D0C00443002F09EFC206801F00AFBC30508D5B4
:100D1C002268B2F8443023F480731B041B0CA2F835
:100D2C004430BDE8F88FB0F8441089B211F00F06CA
:100D3C0040F0B780038811F010019BB22CD103EA6C
:100D4C00090343F400430380B0F8503094F8282092
:100D5C009BB203EBC20300EB4300B0F80434E26B2C
:100D6C00C3F3090363641344E363204602F062FC9B
:100D7C0094F8243053B1226C42B994F82430216891
:100D8C0043F08003A1F84C3084F824202068B0F89C
:100D9C0044301B04C7D426E713F4006521D0B0F807
:100DAC00503094F828219BB203EBC20300EB4303B1
:100DBC00B3F80C34B4F82E21C3F30903C4F844314E
:100DCC0004F50C7101F0AAFB22682046138823F06D
:100DDC0070031B051B0D43F08003138002F01CFCF9
:100DEC00D4E71F04D2D5038823F070031B051B0D19
:100DFC0043F080030380B0F8503094F828219BB264
:100E0C0003EBC20300EB4303B3F80C34C3F3090345
:100E1C00C4F844318BB1D4F83C1171B1B4F82E2123
:100E2C0001F07CFBD4F83C31D4F84421294613441E
:100E3C00C4F83C31204602F0F5FB2168D4F8385157
:100E4C00B1F8503001F20C409BB2CDB9C25A22F429
:100E5C00F8421204120CC252C25A92B242F400422C
:100E6C00C2520B8823F4804323F070031B041B0C29
:100E7C0083F4405343F4004343F080030B8085E735
:100E8C003E2D06D86A08EE0748BF0132920292B294
:100E9C00E6E76A09ED0608BF02F1FF324AEA822250
:100EAC00F5E730F826801FFA88F818F4004F3DD08B
:100EBC0030F82630770123F070031B051B0D43F02F
:100ECC00800320F82630E11991F83431002B58D1E9
:100EDC00B0F8503091F828219BB2063303EBC203D3
:100EEC0000EB4303B3F80054C5F3090535B1B1F871
:100EFC002E212B46D1F83C1101F010FBE119D1F851
:100F0C004431D1F83C212B44C1F84431D1F8403163
:100F1C002A44C1F83C211BB1D1F83801854269D271
:100F2C00274497F82811204602F07CFB18F0800F1C
:100F3C003FF42CAF2168204631F8262092B202EA09
:100F4C00090242F4004221F82620B1F8503004EB9B
:100F5C00461696F828209BB2023303EBC20301EB32
:100F6C004303B3F80024F36BC2F3090272641A440E
:100F7C00336CF26396F82810002B41D102F05AFB27
:100F8C0004E791F8283130F82320DB0012F4804F6D
:100F9C00B0F8502092B21FD00232134400EB43033E
:100FAC00B3F80054C5F3090535B12B46B1F830211F
:100FBC00D1F83C1101F0B2FAE31993F82811226828
:100FCC0032F821309BB203EA0B0343F4004343F0A5
:100FDC00C00322F8213091E70632134400EB43039F
:100FEC00B3F80054C5F30905002DE5D02B46B1F834
:100FFC003221DDE791F828112046FFF7B5FD95E782
:10100C00FFF7D1FDC2E6DFF80C90DFF80CA0DFF89B
:10101C000CB0BBE60F8FFFFF0080FFFF8F8FFFFF31
:10102C0038B5436801F007059D42044628D80B06E5
:10103C001DD501226B0103F128010344014483F8FF
:10104C00292001230D708B7094F828229A4219D014
:10105C0084F82832206801F0EEF825B904F50C71FB
:10106C00206801F061F9002084F8280238BD0022C4
:10107C004B0103F594710344014483F82921E0E703
:10108C00012038BD022038BD38B5436801F00F028D
:10109C009A42044626D801F0070311F0800F4FEA5C
:1010AC00431217D002F1280101440244012082F8B6
:1010BC00290000250B708D7094F82832012B13D069
:1010CC000123206884F8283201F0D5F884F82852DE
:1010DC00284638BD02F5947101440244002082F880
:1010EC002901E6E7012038BD022038BD11F0800F40
:1010FC001BBF01F0070100EB411000EB4110283041
:10110C0008BF00F594701AB90273C38000207047B1
:10111C00012203811B0C02734381F7E72DE9F34194
:10112C00054608B901203CE00368DB0710D42B68A6
:10113C009F075DD42B68190700F194802B685A0720
:10114C0000F1BE80E869002840F02C81002028E0E6
:10115C008F4C636803F00C03042B07D0636803F017
:10116C000C03082B09D16368DE0306D523689C03A6
:10117C00DDD56B68002BDAD1D4E76B68B3F5803F13
:10118C0012D1236843F480332360FFF799FA0646A3
:10119C0023689803CBD4FFF793FA801B6428F7D904
:1011AC00032002B0BDE8F0819BB9236823F480339F
:1011BC002360236823F480232360FFF781FA06461B
:1011CC0023689903B3D5FFF77BFA801B6428F7D902
:1011DC00E6E7B3F5A02F236803D143F48023236003
:1011EC00CFE723F480332360236823F48023CBE7F9
:1011FC00674C636813F00C0F07D0636803F00C03A3
:10120C00082B10D16368DA030DD423689B0702D531
:10121C002B69012B86D123686A6923F0F80343EA12
:10122C00C203236086E72A695A4B6AB101221A600D
:10123C00FFF746FA064623689F07ECD4FFF740FAFF
:10124C00801B0228F7D9ABE71A60FFF739FA06467C
:10125C00236898077FF56EAFFFF732FA801B0228E0
:10126C00F6D99DE7AA694A4C4B4BDAB101221A60B8
:10127C00FFF726FA0646636A9B070DD54FF4FA5220
:10128C00464B1B68B3FBF2F3019300BF019B5A1E44
:10129C000192002BF9D151E7FFF712FA801B0228BB
:1012AC00E9D97DE71A60FFF70BFA0646636A9F07D8
:1012BC007FF544AFFFF704FA801B0228F6D96FE7DD
:1012CC00334CE369D80024D40127E36943F08053FD
:1012DC00E361E36903F080530093009B304E336865
:1012EC00D90518D5EB68012B26D1236A43F00103ED
:1012FC002362FFF7E5F941F288368046236A9B07A3
:10130C003FD5002F3FF41EAFE36923F08053E36118
:10131C0018E70027E2E7336843F480733360FFF784
:10132C00CFF980463368DA05DCD4FFF7C9F9A0EBB6
:10133C0008006428F6D933E7ABB9236A41F2883840
:10134C0023F001032362236A23F004032362FFF7D3
:10135C00B7F90646236A9807D3D5FFF7B1F9801B76
:10136C004045F7D91CE7052B236A03D143F004034E
:10137C002362BAE723F001032362236A23F00403F8
:10138C00B6E7FFF79DF9A0EB0800B042B6D907E726
:10139C00001002400000424280044242180100202A
:1013AC00007000402A4B5A681C4602F00C02082AB6
:1013BC003DD00023274E022833602BD1FFF780F954
:1013CC000746236899011FD42B6AB3F5803F05D1DA
:1013DC006268A96822F400320A436260696A626832
:1013EC000B4322F474121343636001233360FFF741
:1013FC0067F9054623689A013FF5A8AEFFF760F937
:10140C00401B0228F6D9CBE6FFF75AF9C01B02287D
:10141C00D7D9C5E6FFF754F9054623689B017FF53C
:10142C0095AEFFF74DF9401B0228F6D9B8E6012816
:10143C003FF4B7AE58682B6A00F480329A427FF4BE
:10144C0071AE6B6A00F47010C01A18BF0120A8E6C8
:10145C00001002406000424230B5194B87B002AC1C
:10146C0003F11005224618685968083303C2AB42D1
:10147C001446F7D101238DF80430022311498DF85D
:10148C0005304B6803F00C02082A17D1C3F38342D2
:10149C0006A80244DB0312F8102C0CD54B680A4842
:1014AC00C3F34043504306AA134413F8143CB0FB57
:1014BC00F3F007B030BD05485043FAE70248F8E7AF
:1014CC00003A00080010024000127A0000093D00AA
:1014DC002DE9F0410D46044610B90120BDE8F0811C
:1014EC00454A136803F007038B4229D321688E0702
:1014FC0031D4CA0744D4404A136803F007039D4211
:10150C0067D322683D4D12F0040F6ED1130706D538
:10151C006B68226923F4605343EAC2036B60FFF7E4
:10152C009BFF6B68364AC3F30313D35CD840354B2F
:10153C001860354B1868FFF781F80020BDE8F08182
:10154C00136823F007030B431360136803F00703BE
:10155C009942C2D1CAE7294B11F0040F1EBF5A6839
:10156C0042F4E0625A60080742BF5A6842F4605283
:10157C005A605A68A06822F0F00202435A60B8E739
:10158C0062681E4E012A33681BD113F4003FA4D0AD
:10159C00736841F2883823F0030313437360FFF739
:1015AC008FF807467368626803F00C03B3EB820F85
:1015BC00A1D0FFF785F8C01B4045F3D90320BDE847
:1015CC00F081022A02D113F0007FE0E713F0020F42
:1015DC00DDE7136823F007032B431360136803F054
:1015EC0007039D427FF479AF8BE76B68E16823F4C6
:1015FC00E0630B436B6089E700200240001002405F
:10160C00103A0008180100200400002003682DE99E
:10161C00F341D907054620D5354CE369DA0032D4BD
:10162C000127E36943F08053E361E36903F08053DE
:10163C000193019B2F4E3368DB0526D5236A13F4E7
:10164C00407336D1236A6A6823F4407313432362D0
:10165C001FB1E36923F08053E3612868830706D543
:10166C00234AA968536823F440430B43536010F09A
:10167C0010001BD01E4AE9685368002023F4800335
:10168C000B43536012E00027D4E7336843F48073B4
:10169C003360FFF715F880463368D805CED4FFF7D2
:1016AC000FF8A0EB08006428F6D9032002B0BDE8BF
:1016BC00F0816A6802F440729342C3D001200E4A52
:1016CC00236A1060002023F4407110602162D90756
:1016DC00B8D5FEF7F5FF41F288380646236A9A071B
:1016EC00B0D4FEF7EDFF801B4045F7D9DDE700BF16
:1016FC00001002400070004040044242036A70B582
:10170C0023F001030362036A446882690D6822F0C6
:10171C0073022A438D6823F002032B430A4DA8421F
:10172C000BD1CD6823F008032B438E694D6924F44B
:10173C004074354323F004032C43446082614A68AF
:10174C004263036270BD00BF002C0140036A70B598
:10175C0023F480730362036A4468C2690D6822F043
:10176C0073022A438D6823F4007343EA05230B4D5F
:10177C00A8420DD1CD6823F4006343EA05238E699A
:10178C004D6924F44054354323F4806344EA051432
:10179C004460C2614A68C263036270BD002C0140A0
:1017AC00036A30B523F480530362036A4468C26948
:1017BC000D6822F4E64242EA05228D6823F40053B8
:1017CC0043EA0533064DA84202BF4D6924F4804418
:1017DC0044EA85144460C2614A680264036230BD05
:1017EC00002C014003680020DA6842F00102DA6044
:1017FC009A6802F00702062A1EBF1A6842F001021C
:10180C001A6070477047704770477047704703689D
:10181C0010B51A69044691070ED5DA6892070BD5F4
:10182C006FF002021A6101229B6902779B0777D045
:10183C00FFF7EAFF0023237723681A69500710D5B6
:10184C00DA6851070DD56FF004021A6102229B6908
:10185C00227713F4407F204668D0FFF7D5FF002392
:10186C00237723681A6912070FD5DA6810070CD58D
:10187C006FF008021A610422DB692277990720466F
:10188C005AD0FFF7C1FF0023237723681A69D206C9
:10189C0010D5DA68D0060DD56FF010021A61082247
:1018AC00DB69227713F4407F20464BD0FFF7ACFF67
:1018BC000023237723681A69D10708D5DA68D20781
:1018CC0005D56FF0010220461A6101F037FD23683F
:1018DC001A69100608D5DA68110605D56FF0800272
:1018EC0020461A6100F017FA23681A69520608D5C7
:1018FC00DA68500605D56FF0400220461A61FFF7F2
:10190C0085FF23681A69910622D5DA6892061FD5DD
:10191C006FF020022046BDE810401A6100F0FAB9C1
:10192C00FFF771FF2046FFF770FF83E7FFF76BFFB0
:10193C002046FFF76AFF92E7FFF765FF2046FFF7A7
:10194C0064FFA0E7FFF75FFF2046FFF75EFFAFE7FE
:10195C0010BD00001A4A036890420AD0B0F1804FC3
:10196C0007D0A2F59432904203D002F580629042E7
:10197C0015D14A6823F070031343114A90420AD0E0
:10198C00B0F1804F07D0A2F59432904203D002F50B
:10199C008062904203D1CA6823F4407313434A69AE
:1019AC0023F08003134303608B68C3620B6883626C
:1019BC00034B984204BF0B690363012343617047D7
:1019CC00002C014010B50446A0B190F83D3003F056
:1019DC00FF021BB980F83C2001F0F8FC02232068C0
:1019EC0084F83D30211DFFF7B5FF0123002084F85A
:1019FC003D3010BD012010BD10B50446A0B190F8CB
:101A0C003D3003F0FF021BB980F83C20FFF7FAFED3
:101A1C000223206884F83D30211DFFF79BFF012332
:101A2C00002084F83D3010BD012010BD036A70B554
:101A3C0023F010030362036A446882690D6822F480
:101A4C00E64242EA05228D6823F0200343EA05139F
:101A5C000B4DA8420DD1CD6823F0800343EA05134A
:101A6C008E694D6924F44064354323F0400344EA05
:101A7C008504446082614A688263036270BD00BF62
:101A8C00002C014038B590F83C300446012B4FF047
:101A9C00020025D0012384F83D0084F83C300C2A48
:101AAC0018D8DFE802F0071717171E1717172F178C
:101ABC00171740002068FFF721FE236809699A690F
:101ACC0042F008029A619A6922F004029A619A69BA
:101ADC000A439A610123002084F83D3084F83C00CD
:101AEC0038BD2068FFF7A2FF236809699A6942F4A0
:101AFC0000629A619A6922F480629A619A6942EA58
:101B0C000122E6E72068FFF721FE23680969DA69FC
:101B1C0042F00802DA61DA6922F00402DA61DA6969
:101B2C000A43DA61D6E72068FFF73AFE23680969B1
:101B3C00DA6942F40062DA61DA6922F48062DA610D
:101B4C00DA6942EA0122ECE710B584680A4324F40E
:101B5C007F4442EA03232343836010BD90F83C305A
:101B6C0070B5012B04464FF0020019D0012384F804
:101B7C003D00206884F83C30836823F47F4323F0D5
:101B8C00770383600B68402B65D015D8102B0CD0D5
:101B9C0007D853B10123002084F83D3084F83C0071
:101BAC0070BD202B01D0302BF4D1826843F0070399
:101BBC0022F0700213431AE0602B34D019D8502B4A
:101BCC00E8D14A68CE68016A056A21F00A0125F05D
:101BDC000105056283690A4323F0F00343EA061307
:101BEC0083610262836823F0700343F057038360C0
:101BFC00D0E7702B0CD0B3F5005FCBD1CB684A6823
:101C0C008968FFF7A1FF2268936843F4804308E0DA
:101C1C00CB684A688968FFF797FF2268936843F09E
:101C2C0077039360B6E74D68CE68016A21F0100126
:101C3C0001628269036A22F4704223F0A00343EA32
:101C4C00051342EA063282610362836823F0700353
:101C5C0043F06703CBE74A68CE68016A056A21F056
:101C6C000A0125F00105056283690A4323F0F0039C
:101C7C0043EA061383610262836823F0700343F026
:101C8C004703B4E710B50124036A01F01F018C402F
:101C9C0023EA04030362036A8A401A43026210BDFA
:101CAC0010B5044601220068FFF7ECFF2368094ACF
:101CBC000020934202BF5A6C42F400425A649A6864
:101CCC0002F00702062A1EBF1A6842F001021A60CF
:101CDC0010BD00BF002C014090F83C3030B5012BFA
:101CEC004FF0020314D0046880F83D306268A3689A
:101CFC000D68496822F0700223F080030B432A43DD
:101D0C006260A360012380F83D30002380F83C30F2
:101D1C00184630BD7047704784B001A880E80E00AB
:101D2C0004B000207047B0F840309BB243F43F43FE
:101D3C00A0F8403000207047B0F8403023F47C53BA
:101D4C005B045B0CA0F8403000207047002070470B
:101D5C0084B010B503AC84E80E00BDE8104000223E
:101D6C000123A0F84030A0F84020A0F84420A0F8AF
:101D7C005020B0F8403004B09BB243F43F43A0F87D
:101D8C004030104670470000F0B50D78034630F82F
:101D9C002520C87822F4EC4222F070021204120CB6
:101DAC0003284ED8DFE800F0024A044742F40072E0
:101DBC00002048F28004224323F825200E78AB4DF6
:101DCC0033F82620344392B22A40224323F82620AB
:101DDC000C7B0A78002C40F088804E78CC8896B327
:101DEC00B3F8506003EB021224F00104B6B202F512
:101DFC008062A4B294530C7833F82420560609D58B
:101E0C0033F8242092B22A4042F4004242F0C0023D
:101E1C0023F82420CA780978012A33F82120944C1D
:101E2C0092B202EA040201D082F0200242F4004293
:101E3C0042F08002CBE042F4C062B9E742F4806227
:101E4C00B6E70120B5E7B3F8505003EB021224F0CB
:101E5C000104ADB202F58162A4B254530A78B3F80E
:101E6C0050600D6903EB0212B6B202F20C425DBB7C
:101E7C00945B24F4F8442404240C9453945B6FEA8C
:101E8C0044446FEA5444A4B294530C7833F824209D
:101E9C0055040DD533F8242022F4E04222F07002D0
:101EAC001204120C42F4404242F0800223F8242027
:101EBC00097833F8212022F4804222F070021204B7
:101ECC00120C82F44052B1E73E2D05D86C08ED0798
:101EDC0048BF0134A402D6E76F09EC06654C08BF75
:101EEC0007F1FF3744EA8724CDE733F82240A4B248
:101EFC002C4044F4014444F0800423F822400A7836
:101F0C000C89B3F8506003EB021224F00104B6B252
:101F1C0002F58062A4B294530A784C89B3F85060ED
:101F2C0003EB021224F0010402F58162A4B2B6B2F2
:101F3C0094534A780C78002A4CD133F8242052045C
:101F4C0009D533F8242092B22A4042F4404242F0A0
:101F5C00800223F824200C7833F8242057060DD562
:101F6C0033F8242022F4E04222F070021204120C06
:101F7C0042F4004242F0C00223F824200C7833F8DB
:101F8C00242022F4E04222F070021204120C42F4DB
:101F9C00004242F0C00223F8242048F280040D785D
:101FAC0033F8252022F4804222F070021204120C25
:101FBC0082F44052224323F82520097833F821205B
:101FCC0022F4E04222F040021204120C224323F8C5
:101FDC002120F0BD33F82420560409D533F82420F1
:101FEC0092B22A4042F4404242F0800223F824206C
:101FFC000C7833F8242052060DD533F8242022F423
:10200C00E04222F070021204120C42F4004242F040
:10201C00C00223F824200C78154D33F8242022F428
:10202C00E04222F070021204120C42F4404242F0E0
:10203C00800223F82420CA780C78012A33F8242053
:10204C0092B202EA050218BF82F0200242F400426A
:10205C0042F0800223F82420097833F8212022F45E
:10206C00804222F070021204120CDFE68F8FFFFF09
:10207C00BF8FFFFF0080FFFF10B50C7B4B780A78F9
:10208C00002C3DD113B330F822305C060DD530F85E
:10209C00223023F4E04323F070031B041B0C43F4A5
:1020AC00004343F0C00320F822300A7830F8223085
:1020BC0023F4E04323F040031B041B0C43F40043C4
:1020CC0043F0800320F82230002010BD30F822307D
:1020DC005B040DD530F8223023F4E04323F0700379
:1020EC001B041B0C43F4404343F0800320F82230C4
:1020FC000A7830F8223023F4804323F07003DBE7B6
:10210C00002B4ED130F822305C040DD530F8223043
:10211C0023F4E04323F070031B041B0C43F44043F3
:10212C0043F0800320F822300A7830F822305B0626
:10213C000DD530F8223023F4E04323F070031B0458
:10214C001B0C43F4004343F0C00320F822300A7800
:10215C0030F8223023F4E04323F070031B041B0CF3
:10216C0043F4004343F0C00320F8223048F28002CD
:10217C000C7830F8243023F4804323F070031B04D4
:10218C001B0C134320F82430097830F8213023F449
:10219C00E04323F040031B041B0C134320F82130B5
:1021AC0092E730F822305C040DD530F8223023F45D
:1021BC00E04323F070031B041B0C43F4404343F037
:1021CC00800320F822300A7830F822305B060DD5D7
:1021DC0030F8223023F4E04323F070031B041B0C73
:1021EC0043F4004343F0C00320F822300A7830F85F
:1021FC00223023F4E04323F070031B041B0C43F444
:10220C00404343F0800320F8223048F280020C78DF
:10221C0030F8243023F4E04323F040031B041B0C60
:10222C00134320F82430097830F8213023F480430C
:10223C0023F07003AFE74B780A788BB130F822307B
:10224C0023F4E04323F040031B041B0C83F0100326
:10225C0043F4004343F0800320F822300020704701
:10226C0030F8223023F4804323F070031B041B0C42
:10227C0083F48053ECE70B7B43BB4B780A783BB37E
:10228C0030F822305B060DD530F8223023F4E043D1
:10229C0023F070031B041B0C43F4004343F0C003F6
:1022AC0020F82230CB78012B10D00A7830F822306D
:1022BC0023F4E04323F040031B041B0C83F02003A6
:1022CC0043F4004343F0800320F822300020704791
:1022DC0030F822305B040DD530F8223023F4E04383
:1022EC0023F070031B041B0C43F4404343F08003A6
:1022FC0020F822300A7830F8223023F4804323F07F
:10230C0070031B041B0C83F44053D9E711B98023D1
:10231C00A0F84C3000207047002070470020704718
:10232C00B0F8440080B270470020704700EB4202C6
:10233C00013302F580625B0802EB83039A4200D101
:10234C00704731F8020B22F8040BF7E770B50D4615
:10235C00497804460129AA692B69287B66D19A42DF
:10236C009DBF0023AB611346D21A88BFAA619EB2EF
:10237C0008BB3346EA8869692046FFF7D7FFB4F8F3
:10238C0050302A7899B204F2044312010B44D6520D
:10239C002A7834F8223023F4E04323F040031B0462
:1023AC001B0C83F0300343F4004343F0800324F808
:1023BC002230002070BD2B78204634F823201B01DE
:1023CC0012F0400FB4F8502091B215BF04F20C4239
:1023DC0004F204425218521815BFD652D6526A89CA
:1023EC002A8933466969FFF7A1FF6B782A7873B99C
:1023FC0034F8223023F4E04323F070031B041B0C4D
:10240C0043F4004343F0C00324F82230C0E7012B0F
:10241C00BED134F8223023F4E04323F070031B04C4
:10242C001B0C43F4404343F08003EDE79A4293BF07
:10243C000023D21AAA61AB6198BF13462A78B0B9AF
:10244C00B4F85000120181B204F20C400844002B85
:10245C0044D1835A23F4F8431B041B0C8352835A34
:10246C006FEA43436FEA53439BB283523FE0A1B9F7
:10247C00B4F85000120181B204F204400844E3B9EC
:10248C00815A21F4F8410904090C8152815A6FEAEE
:10249C0041416FEA514189B2815269782A78002909
:1024AC00CED0012923D1B4F85010120188B204F215
:1024BC000C4101449BB28B5219E03E2B05D85908B4
:1024CC00DE0748BF01318902E5E75E09D9061249EA
:1024DC0008BF06F1FF3641EA8621DCE73E2B12D815
:1024EC005908DE0748BF0131890289B281522A7826
:1024FC0034F8223023F4804323F070031B041B0CAC
:10250C0083F440534FE75909DB06034B08BF01F135
:10251C00FF3143EA8123A7E70080FFFF00EB420273
:10252C00F0B502F580625D08084617462E4602306B
:10253C0036B9DB0744BF32F8253001F81530F0BD51
:10254C0037F8044B013EA4B200F8024C240A00F800
:10255C00014CECE7D0F8BC3210B5D0F8B8425BB106
:10256C0094F80002FF2807D09B6894F801222146BA
:10257C009847FF2384F80032002010BD43230380CA
:10258C0000487047400000204323038000487047F8
:10259C00840000204323038000487047D4000020AF
:1025AC000A23038000487047C800002038B5054650
:1025BC00D0F8B84201F032F9D5F8B832C4F80C02B0
:1025CC004BB1D5F8BC3204F50371DB68D4F80402C6
:1025DC009847002038BD022038BDF8B5D0F8B86255
:1025EC00CEB1142303FB0103DA6982B1D0F8C042E7
:1025FC0004EB4114A56BB2FBF5F405FB142434B9C0
:10260C00DC612246234601F0EDF82046F8BD00209F
:10261C00C6F81402F8BD0220F8BD2DE9F7434FF0BF
:10262C0000080A78054612F060040E46D0F8B8721D
:10263C008DF80580ADF8068028D0202C47D1CC88A9
:10264C004B78E4B1120611D5D0F8BC223946D2F839
:10265C00089018462246C847F2883946284600F0AA
:10266C0048FC4446204603B0BDE8F08387F80032AE
:10267C0087F801422246394600F050FCF1E7D0F8C9
:10268C00BC22184695682246A847EBE74F780A2FDC
:10269C000DD00B2F15D0D7B990F89C32032B14D139
:1026AC0002220DF1060100F024FC3C46DAE790F81A
:1026BC009C32032B09D101220DF1050100F019FC0C
:1026CC00D0E790F89C32032BCCD03146284600F052
:1026DC00E9FB0224C6E738B504460025812101F048
:1026EC0039F80121E562204601F034F8C4F86C5148
:1026FC008221204601F02EF8D4F8B83225644BB173
:10270C00D4F8BC325B689847D4F8B80201F08EF864
:10271C00C4F8B852002038BD037C2DE9F0410446C2
:10272C00CBBB4FF4007302228121012501F002F88A
:10273C004FF40073E56229460222204600F0FAFFAE
:10274C00C4F86C510125082303228221204600F095
:10275C00F1FF25644FF4077001F064F80646C4F8E5
:10276C00B80258B30027D4F8BC321B68984794F8C9
:10277C001080C6F81472C6F81872B8F1000F13D195
:10278C004FF40073D6F804222946204601F038F89D
:10279C004046BDE8F081012540230222812100F052
:1027AC00C9FFE5624023C6E74023D6F80422294638
:1027BC00204601F025F83846BDE8F0812846BDE8F2
:1027CC00F08119B1C0F8BC1200207047022070478C
:1027DC00D0F8B8320020C3F80812C3F810227047A2
:1027EC00D0F8B8320020C3F804127047D0F8B822E1
:1027FC0010B582B1D2F81442012374B9C2F8143264
:10280C00D2F8103281210363D2F808229BB200F077
:10281C00E9FF204610BD022010BD184610BDD0F8AF
:10282C00B82210B562B1047C44B94FF40073D2F8ED
:10283C000422012100F0E4FF002010BD4023F6E744
:10284C00022010BD08B580B1D0F8B43213B100230A
:10285C00C0F8B43209B1C0F8B0120123027080F88C
:10286C009C3200F019FF002008BD022008BD19B1F0
:10287C00C0F8B412002070470220704708B500F071
:10288C004BFF002008BD08B5D0F8B4320BB90220BC
:10289C0008BD1B6898470028F9D108BD08B5D0F8C9
:1028AC00B4325B689847002008BD38B500F52A752E
:1028BC000446284600F0E2FA012394F8A812C4F862
:1028CC009432B4F8AE32C4F8983201F01F03012BE5
:1028DC000ED007D3022B10D001F08001204600F05F
:1028EC0047FF03E02946204600F0F6F8002038BDEB
:1028FC002946204600F014FAF8E72946204600F055
:10290C0034FAF3E770B50546164649BBD0F8943255
:10291C00032B1ED1D0F86031D0F8642193420BD92F
:10292C009B1A9A42C0F860318CBF9AB292B231466F
:10293C0000F003FB002070BDD0F8B4321B6923B14A
:10294C0090F89C22032A00D19847284600F0FDFA03
:10295C00F0E7052BEED1C5F8941200F009FFE9E77A
:10296C00D0F8B4329B692BB190F89C22032A01D188
:10297C009847DFE7022070BD70B5134604460E463B
:10298C00002947D1D0F89422022A3CD1056A426A28
:10299C00954213D9AA1A0262194692B200F0B6FAFD
:1029AC0033461A461946204600F02AFF94F8A03206
:1029BC000020012B3AD184F8A00270BDC369B3FB8F
:1029CC00F2F502FB153565B99A420AD8D0F898226F
:1029DC00934206D22A4600F099FAC4F898522B4634
:1029EC00DFE7D4F8B432DB682BB194F89C22032ACD
:1029FC0001D1204698478021204600F0B9FE2046A0
:102A0C0000F0AEFAD2E732F00403CFD1802100F00F
:102A1C00AFFECBE7D0F8B4325B6933B190F89C22AF
:102A2C00032A02D19847002070BD022070BD0022FD
:102A3C0070B50446012540261146402300F07AFE6D
:102A4C0033468021C4F85851C4F8646100222046F2
:102A5C0000F070FE0021D4F8B832A561666284F8EB
:102A6C009C52C4F894126160C4F8A41223B1D4F837
:102A7C00B43220465B689847002070BD017400207A
:102A8C00704790F89C3280F89D32042380F89C3279
:102A9C000020704790F89C32042B04BF90F89D32B4
:102AAC0080F89C320020704708B590F89C22032ACD
:102ABC0004D1D0F8B432DB6903B19847002008BDCB
:102ACC0010B50446802100F053FE2046BDE81040AE
:102ADC00002100F04DBE000037B50B78044603F022
:102AEC006003202B0D4612D0402B10D0002B5CD154
:102AFC004B78092B58D8DFE813F0E9000501570093
:102B0C00FE005700840013005700D200A000D4F838
:102B1C00B43229469B6820469847002003B030BD4C
:102B2C000023ADF806304B881A0A013A062A3BD826
:102B3C00DFE802F004202D3A3A525C00D0F8B032B3
:102B4C001B680DF10601207C9847BDF8062052B198
:102B5C00EB8843B19A4228BF1A4601462046ADF88D
:102B6C00062000F0C6F9EB88002BD6D1204600F0E9
:102B7C00ECF9D2E7027CD0F8B43232B99B6A0DF191
:102B8C000600984702234370DFE7DB6AF7E7DBB206
:102B9C00052B09D8DFE803F0030C1014181CD0F82F
:102BAC00B0325B68002BCCD12046FFF789FFB4E72D
:102BBC00D0F8B0329B68F5E7D0F8B032DB68F1E7BB
:102BCC00D0F8B0321B69EDE7D0F8B0325B69E9E7B9
:102BDC00D0F8B0329B69E5E7037C002BE4D1D0F848
:102BEC00B4320DF106005B6B9847AEE7037C002B0B
:102BFC00DAD1D0F8B4320DF106001B6B98470723DD
:102C0C00C1E78B88002BCFD1CB88002BCCD14D8842
:102C1C007F2DC9D890F89C32E9B2032BC4D080F830
:102C2C009E1200F0D1FD204600F08FF91DB1022359
:102C3C0084F89C3271E70123FAE78978374D012932
:102C4C002970B1D890F89C32022B08D0032B14D0E9
:102C5C00FFF736FF29782046FFF720FE5DE70029B5
:102C6C0084D001210323416080F89C322046FFF779
:102C7C000AFE02287FF47AAF96E731B9022341604D
:102C8C0080F89C32FFF70AFE70E7416801293FF497
:102C9C006DAFC9B2FFF702FE29786160E6E7CA881A
:102CAC00012A81D190F89C32002B3FF47DAF022B8E
:102CBC0004D9032B7FF478AF011D03E001460023F8
:102CCC0041F8083F204600F014F926E790F89C32B2
:102CDC00013B022B3FF668AFCB88022B7FF464AF2D
:102CEC000123C360D0F8A4320BB10323C3600222CA
:102CFC0004F10C01E6E74B88012B7FF40EAFC4F80E
:102D0C00A43233E790F89C32013B022B3FF64CAFD8
:102D1C004B88012B7FF401AF0023F0E798010020D2
:102D2C0038B50B78044603F06003202B0D4602D017
:102D3C00402B00D0B3B994F89C32013B022B10D835
:102D4C002B79012B0DD8D4F8B43229469B68204638
:102D5C009847EB881BB910B9204600F0F6F8002014
:102D6C0038BD2046FFF7ACFEF9E738B50A780446C3
:102D7C0002F06002202A0B4613D0402A11D06AB907
:102D8C005D788A88012DD1B21FD035D3032D05D1A2
:102D9C0090F89C22022A26D0032A0AD0FFF790FE34
:102DAC0005E0D4F8B42219469268204690470020DA
:102DBC0038BD5A882AB94A0603D0DB880BB900F013
:102DCC00D7FC204600F0C1F8F1E790F89C22022ACB
:102DDC0009D0032AE2D15B88002BE8D14D06F0D054
:102DEC0000F0D4FCEDE74B0616D000F0C1FC8021BE
:102DFC00204600F0BDFCDAE790F89C32022B0DD097
:102E0C00032BCBD1142312F0800F01F00F0203FB24
:102E1C00020214D09269EAB92046BFE74906FBD1F9
:102E2C0013064FF000034FF002024CBF00F11401E7
:102E3C0000F5AA710B60204600F05BF8B7E7D2F8FA
:102E4C005821002AE8D001F07F0503FB050505F5A4
:102E5C00AA7504E001F07F0505FB0335054411F06C
:102E6C007F0303D12B6002222946E4E7204600F0C1
:102E7C009BFC08B10123F5E72860F4E70B7803709D
:102E8C004B784370CA788B7803EB022343804A79E2
:102E9C000B7903EB02238380CA798B7903EB022332
:102EAC00C380704710B50446802100F061FC2046B9
:102EBC00BDE81040002100F05BBC30B588B1054680
:102ECC002B1A15F8014BDBB2002CF9D101335B0046
:102EDC0013800B7003234B700223013810F8015F31
:102EEC0005B930BD5A1CCD54D2B20233DBB28C546E
:102EFC00F4E71346022210B5C0F89422C3610A46C7
:102F0C000362002100F06EFC002010BD08B51346D2
:102F1C000A46002100F066FC002008BD134603227F
:102F2C0010B5C0F89422C0F85C310A46C0F8603184
:102F3C00002100F065FC002010BD08B513460A46C0
:102F4C00002100F05DFC002008BD08B50423C0F88A
:102F5C00943200231A46194600F044FC002008BDA8
:102F6C0008B50523C0F8943200231A46194600F020
:102F7C0047FC002008BD282270B594B00DEB020070
:102F8C00002100F022FD142210260DEB020000217E
:102F9C0000F01BFD3246002101A800F016FD4FF495
:102FAC008033012202250B9312934FF4E0130AA8ED
:102FBC000A920E9213931195FEF7B0F80F2300248A
:102FCC0005934FF48063294605A80893069507944A
:102FDC000994FEF77DFA01A801960494FEF716FBFE
:102FEC0014B070BD6D2307B58DF800300D238DF82E
:102FFC00013003238DF8023029238DF8030080F073
:10300C0063008DF80400072168468DF8053000F048
:10301C00CFFA03B05DF804FB2DE9F04182B0002338
:10302C00447800AFFB80E31D23F0070300EB04089A
:10303C00ADEB030D98F804306E46292B3ED1037886
:10304C006D2B27D18578C11C84EA050383F06D03B1
:10305C0022466846FB8000F0ADFC69466A46531A6E
:10306C00DBB29C420DD8FB8898F803209BB29A42A5
:10307C0024D1012D0CD0022D10D08820FFF7B2FFE7
:10308C0008E0FB8812F8010B9BB24340FB80E6E79B
:10309C000B4B1D700837BD46BDE8F0813278094BEB
:1030AC001A707278B37803EB0223074A138001225B
:1030BC00064B1A700022064B1A80EBE79920DDE7CD
:1030CC00990100209E010020A00100209A010020FF
:1030DC009C0100201FB50023ADF80C306D238DF83A
:1030EC00043004238DF8053001238DF80630030ECF
:1030FC008DF80730030C8DF80830030A8DF8093071
:10310C002923C0B28DF80A0080F068008DF80B00FE
:10311C00092101A88DF80C3000F04AFA05B05DF8D1
:10312C0004FB00002DE9F04F012693B0FDF7AAFA3D
:10313C00FFF721FF102200210BA800F046FC734B77
:10314C000BA99A69724842F020029A619A6900248C
:10315C0002F020020292029A9A694FF4805842F0CF
:10316C0004029A619A696B4F02F004020392039A6B
:10317C009A69694D42F008029A619B690B9603F0BB
:10318C0008030493049BFDF70BFB002110220BA8F2
:10319C0000F01BFC48F69F434FF08042384687E80E
:1031AC000C00BC60FE603C61BC6107940894FEF7A7
:1031BC0009FC0BA93846CDF82C80FEF7CFFC07A9EB
:1031CC00384607940894FEF787FD00F09DF910220D
:1031DC00214607A800F0F9FB1C2221460BA80594F8
:1031EC00069400F0F2FB47234C49284685E80A0078
:1031FC006423AC60EB602C61AC61FEF7E3FB07A9C8
:10320C002846CDF81C80FEF7A9FC2846FEF7F4FBF7
:10321C0005A9284605940694FEF75EFD6023224618
:10322C000BA928460B930C940D940F94FEF72AFCD3
:10323C00284600F0FFF83846FEF7D4FA384F2846F7
:10324C00FEF7D0FA21462846FEF72AFD2B683A787D
:10325C00DFF8E0805A630023C146DFF8DCA0079456
:10326C000B93B8F800309BB2632B1FD9079B3046E9
:10327C000193FDF71FF801465046FDF723F9019B1A
:10328C0083461846FDF712F801465846FDF766F8D6
:10329C000A2E88BF00230B9088BF07934FF00003C2
:1032AC008EBF01260136F6B2A9F80030012118486C
:1032BC00FDF758FB012821D11CB90446079B0133AB
:1032CC000793184B1A78012A09D100220B981A700F
:1032DC00FDF794F94FF47A735843FFF7FBFE124B4A
:1032EC00124A1B8812889BB29A42114A08D9137849
:1032FC00012B05D12B683A785A63B2E70024E0E73A
:10330C00002313702A685363ABE700BF0010024020
:10331C00000C014010040020CC03002000040040ED
:10332C009E010020990100209C010020A00100209A
:10333C009A010020C8030020000020410368B3F16B
:10334C00804F0AD1074A138801339BB21380064A77
:10335C00138801339BB213807047044A9342FBD10C
:10336C00034AF5E79C010020C8030020000400403C
:10337C000C04002070470000124B07B59A69052019
:10338C0042F001029A619A6902F001020092009ADD
:10339C00DA6942F08052DA610022DB69114603F0EF
:1033AC0080530193019BFDF7A3F90520FDF7D4F998
:1033BC00054A536823F0E06343F00073536003B095
:1033CC005DF804FB0010024000000140036807B5E3
:1033DC00B3F1804F15D103F50433DA691C2042F0A8
:1033EC000102DA610022DB69114603F0010300934C
:1033FC00009BFDF77DF91C20FDF7AEF903B05DF8DD
:10340C0004FB0A4A9342F9D1094B1D20DA6942F0B8
:10341C000202DA610022DB69114603F00203019318
:10342C00019BFDF765F91D20E6E700BF0004004095
:10343C000010024010B5044686B01022002102A8EC
:10344C0000F0C3FA22680C4B9A4213D103F50333F4
:10345C009A6902A942F004029A619B69074803F039
:10346C0004030193019B40230293022303930593CE
:10347C00FDF796F906B010BD0004004000080140AD
:10348C007047FEE7FEE7FEE7FEE7704770477047C0
:10349C00FDF70AB9704700000148FDF79BBB00BF60
:1034AC00E40E00200148FEF7B2B900BF1004002062
:1034BC000148FEF7ACB900BFCC0300200F4B1A68D3
:1034CC0042F001021A6059680D4A0A405A601A68A3
:1034DC0022F0847222F480321A601A6822F480225C
:1034EC001A605A6822F4FE025A604FF41F029A6066
:1034FC004FF00062034B9A60704700BF001002400F
:10350C000000FFF800ED00E008B500220E490F485E
:10351C00FFF798F908B1FFF72DFF0D490B48FFF79E
:10352C00A6F908B1FFF726FF0A490848FFF749F941
:10353C0008B1FFF71FFF0548FFF7A0F918B1BDE868
:10354C000840FFF717BF08BD2C01002050040020D5
:10355C00080000201C01002000207047002070474C
:10356C0070B504460E46074D01462846FFF738F95C
:10357C002846FFF754F931682046FFF74DFD00202F
:10358C0070BD00BF5004002010B5064C0022064947
:10359C002046FFF71DF905492046FFF721F90020C9
:1035AC0010BD00BF50040020FC0A002014070020AE
:1035BC0010B5094C0A46D4F8B832D3F8143243B9D2
:1035CC0001462046FFF704F92046BDE81040FFF7FE
:1035DC000DB9012010BD00BF5004002007B50D4BE4
:1035EC0002689A4212D103F5DA33DA69142042F4F4
:1035FC000002DA610022DB69114603F40003019337
:10360C00019BFDF775F81420FDF7A6F803B05DF8E3
:10361C0004FB00BF005C004000F50C71D0F86802A0
:10362C00FFF743B900EB4113D3F83C21D0F8680203
:10363C00FFF768B900EB4113DA6BD0F86802FFF7BB
:10364C009BB9D0F86802FFF72FBA836810B5022B2C
:10365C00044601D0FFF78EFED4F868020121FFF773
:10366C000DFAD4F86802BDE81040FFF7E0B900008D
:10367C0010B50446D0F86802FFF703FAA36923B12A
:10368C00024A136943F00603136110BD00ED00E01C
:10369C00D0F86802FFF7FEB90223082210B51C49C6
:1036AC0004461C4880E80E000023C4F8C002C0F891
:1036BC0068428361C3610362FDF75AF908B1FFF7F1
:1036CC0059FE002218231146D4F8C002FDF70EFD56
:1036DC00582300228021D4F8C002FDF707FDC02337
:1036EC0000228121D4F8C002FDF700FD4FF488734D
:1036FC0000220121D4F8C002FDF7F8FC4FF48073CE
:10370C0000228221D4F8C002FDF7F0FC002010BD8D
:10371C00005C0040E40E002008B5D0F8C002FDF7B4
:10372C009CF903289ABF024B185C022008BD00BF0D
:10373C00203A000810B51C46D0F8C00213462246A9
:10374C00FDF7B6F903289ABF014B185C022010BD97
:10375C00203A000808B5D0F8C002FDF7DCF90328C0
:10376C009ABF024B185C022008BD00BF203A00082B
:10377C0008B5D0F8C002FDF753FC03289ABF024BE2
:10378C00185C022008BD00BF203A000808B5D0F82C
:10379C00C002FDF779FC03289ABF024B185C02208B
:1037AC0008BD00BF203A00080A06D0F8C03245BF59
:1037BC0001F07F0103EB411303EB411393F82A0053
:1037CC0058BF93F82A01704708B5D0F8C002FDF72E
:1037DC005BF903289ABF024B185C022008BD00BF9E
:1037EC00203A000808B5D0F8C002FDF7DCF9032830
:1037FC009ABF024B185C022008BD00BF203A00089B
:10380C0008B5D0F8C002FDF7AFF903289ABF024BF8
:10381C00185C022008BD00BF203A0008D0F8C00296
:10382C00FDF7BAB900487047A401002070477047F3
:10383C00122301480B8070474801002004230148E3
:10384C000B8070475C010020002330B51D46DCB2B4
:10385C00A24200D830BD040F092C94BF3034373449
:10386C0001F8134001EB4304000165700133EEE7EE
:10387C001A2310B50B80094B186808331B68C01845
:10388C000AD0074B08221C680649FFF7DDFF04220B
:10389C0005492046FFF7D8FF044810BDE8F7FF1F85
:1038AC00ECF7FF1F62010020720100206001002074
:1038BC0010B5044C0A4604482146FFF7FEFA204690
:1038CC0010BD00BF501100203D3A000810B5044C4B
:1038DC000A4604482146FFF7F0FA204610BD00BF07
:1038EC0050110020503A000810B5044C0A46044808
:1038FC002146FFF7E2FA204610BD00BF5011002010
:10390C00243A000810B5044C0A4604482146FFF737
:10391C00D4FA204610BD00BF501100202F3A0008E9
:10392C00002103E00B4B5B58435004310A480B4B0E
:10393C0042189A42F6D30A4A02E0002342F8043BAA
:10394C00084B9A42F9D3FFF7B9FD00F00FF8FFF7D7
:10395C00E9FB7047703A0008000000207C01002051
:10396C007C01002050130020FEE7000070B50025FC
:10397C000C4E0D4CA41BA410A54209D100F02EF83E
:10398C0000250A4E0A4CA41BA410A54205D170BDFB
:10399C0056F8253098470135EEE756F8253098470C
:1039AC000135F2E7683A0008683A0008683A0008FE
:1039BC006C3A000810B5431E0A44914200D110BD68
:1039CC0011F8014B03F8014FF7E703460244934209
:1039DC0000D1704703F8011BF9E70000F8B500BFF0
:1039EC00F8BC08BC9E467047F8B500BFF8BC08BCD4
:0439FC009E4670472C
:103A000002030405060708090A0B0C0D0E0F10101F
:103A1000000000000000000001020304060708097E
:103A20000002010243444320436F6E66696700430E
:103A3000444320496E746572666163650053544D5A
:103A40006963726F656C656374726F6E696373002E
:103A500053544D3332205669727475616C20436F34
:083A60006D506F72740000004C
:043A68003101000820
:043A6C000D01000840
:103A7000010000001000000025270008E3260008D0
:103A8000272600080000000061250008E72500083F
:103A9000B925000800000000000000000000000040
:103AA0009525000889250008A1250008AD250008F6
:103AB00009024300020100C03209040000010202B1
:103AC0000100052400100105240100010424020264
:103AD00005240600010705820308001009040100FF
:103AE000020A0000000705010240000007058102EC
:103AF0004000000009024300020100C03209040036
:103B0000000102020100052400100105240100014A
:103B100004240202052406000107058203080010A0
:103B200009040100020A000000070501020002006A
:103B300007058102000200000A06000200000040A2
:103B40000100000009074300020104C0320904001B
:103B500000010202010005240010010524010001FA
:103B60000424020205240600010705820308001050
:103B700009040100020A00000007050102400000DC
:103B800007058102400000000024F400953500087C
:103B900065350008693500086D3500083D380008B6
:103BA00049380008BD380008D93800087D380008B9
:103BB000F538000811390008120100020202004025
:103BC00083044057000201020301000004030904BA
:103BD0001A030000000000000000000000000000C8
:0C3BE000000000000000000000000000D9
:040000050800392D89
:00000001FF
